:1000000009C016C015C014C013C012C011C010C062
:100010000FC00EC011241FBECFE9CDBF20E0A0E667
:10002000B0E001C01D92A336B207E1F712D075C04F
:10003000E7CF87B9369A3699FECF84B195B1089546
:1000400026E131E0019708F40895F9013197F1F7BD
:10005000F9CF83E886B98FB7F894BB98C3988FBF60
:10006000BC9A8FB7F894BA98C2988FBFB99A8FB5D7
:100070008F7C8FBDC1988FB7F894B898C0988FBF08
:100080008FB58F738FBDC09A809160009091610091
:10009000835391408534910568F4C1E080E0C9DF65
:1000A000892BC9F480E0C5DF892B71F484E690E0E8
:1000B000C7DFF8CF84EF91E0C3DF83E0BADF90932E
:1000C000610080936000E0CF80916200811113C0D5
:1000D000C49AC093620086B3909162009923F1F2B2
:1000E00082FDDCCF80EC94EDABDFB299D7CFC49822
:1000F00010926200D3CF8FB58F7C8FBDC19AB29B17
:1001000004C084E690E09CDFFACF8FB58F7C8FBD72
:0E011000C198C49810926200DECFF894FFCF21
:00000001FF
